:100000000C9446000C9465000C9465000C946500FB
:100010000C9465000C9465000C9465000C946500CC
:100020000C9465000C9465000C9465000C946500BC
:100030000C9465000C9465000C9465000C946500AC
:100040000C9465000C9465000C9465000C9465009C
:100050000C9465000C9465000C9465000C9465008C
:100060000C9465000C9465000C9465000C9465007C
:100070000C9465000C9465000C9465000C9465006C
:100080000C9465000C9465000C94650011241FBE4F
:10009000CFEFD0E4DEBFCDBF11E0A0E0B1E0E4E8F7
:1000A000FAE000E00BBF02C007900D92AE30B1073E
:1000B000D9F721E0AEE0B1E001C01D92AE31B20748
:1000C000E1F70E9468030C9440050C940000CF9364
:1000D000DF9300D01F92CDB7DEB789837B836A831D
:1000E00089818A3031F48A819B81BC018DE00E9434
:1000F000670080EC90E0FC018081882F90E08072A6
:100100009927892BB1F386EC90E02981FC012083AB
:1001100080E090E00F900F900F90DF91CF910895C5
:100120000F931F93CF93DF9300D000D0CDB7DEB7EE
:1001300069837A838B839C8380910E0190910F0158
:10014000A0911001B09111019C01AD0169817A81EA
:100150008B819C810E94AC03882309F477C020E046
:1001600030E0A90169817A818B819C810E94AC0376
:10017000882351F481E990E021E930E0F901208100
:100180002870FC01208309C081E990E021E930E07A
:10019000F90120812360FC01208328E539E344E74D
:1001A0005FE369817A818B819C810E94AC03882303
:1001B00044F488E990E02FEF3FEFFC013183208386
:1001C00034C020E034E244EF56E469817A818B81C7
:1001D0009C810E94CE04181634F488E990E0FC015A
:1001E0001182108222C008E910E020E030E040E0F7
:1001F00053E469817A818B819C810E94D304DC0164
:10020000CB019C01AD0160E074E284EF9AE40E94AE
:10021000B103DC01CB01BC01CD010E942304DC0150
:10022000CB010197F8019183808384E990E0FC0180
:100230001182108289819A81AB81BC8180930E01E9
:1002400090930F01A0931001B093110100000F9043
:100250000F900F900F90DF91CF911F910F91089504
:10026000CF93DF93CDB7DEB780E990E020E4FC01C7
:10027000208381E990E02BE0FC01208360E070E0C6
:10028000CB010E9490000000DF91CF910895CF93A1
:10029000DF93CDB7DEB780E990E0FC01108281E901
:1002A00090E0FC0110820000DF91CF910895CF9380
:1002B000DF93CDB7DEB780911401909115018130A5
:1002C000910571F08130910520F0029709F450C03A
:1002D0005AC081E090E090931501809314015BC0B7
:1002E00080911A018130D1F480911B018823B1F4EF
:1002F00082E090E0909315018093140181E0809357
:100300001B018091160190911701A0911801B091E5
:100310001901BC01CD010E94900021C080911A01F9
:10032000813091F480911B01813071F482E090E082
:10033000909315018093140110921B0160E070E00E
:10034000CB010E9490000BC080911A01882311F507
:1003500081E090E090931501809314011BC01AC0B6
:1003600080E290E0FC01808180958F7080931A017B
:1003700080911A018823A1F781E090E09093150104
:100380008093140108C081E090E090931501809360
:10039000140101C000008091140190911501019792
:1003A00009F08DC080911B01813009F087C08091D8
:1003B0001D01882369F484EA90EDA2E8B3E48093F8
:1003C000160190931701A0931801B093190176C0FC
:1003D00080911D01813069F48BE794EDA2E9B3E4CB
:1003E0008093160190931701A0931801B0931901FF
:1003F00065C080911D01823069F48DEC9CECA4EA0B
:10040000B3E48093160190931701A0931801B09361
:10041000190154C080911D01833069F481E79DE981
:10042000AEEAB3E48093160190931701A0931801EC
:10043000B093190143C080911D01843069F480E0BC
:1004400090E0A4ECB3E48093160190931701A0937D
:100450001801B093190132C080911D01853069F4F3
:1004600080E090E0ACEDB3E4809316019093170127
:10047000A0931801B093190121C080911D0186300D
:1004800069F484EA90EFA6EFB3E4809316019093A9
:100490001701A0931801B093190110C080911D019C
:1004A000873061F480E090EDA2E0B4E4809316011F
:1004B00090931701A0931801B09319010000000058
:1004C000DF91CF910895CF93DF93CDB7DEB78091C1
:1004D00012019091130182309105E9F18330910569
:1004E00028F4009779F00197A1F0BBC08430910502
:1004F00009F475C08430910508F44FC0059709F4DC
:100500008FC0AFC081E090E09093130180931201FF
:10051000BAC080911C01882339F481E090E0909367
:10052000130180931201A6C080911C01823039F41E
:1005300082E090E090931301809312019BC0809120
:100540001C01843009F096C084E090E09093130180
:10055000809312018FC080911C01823039F483E0B6
:1005600090E0909313018093120186C080911C014A
:10057000843039F484E090E0909313018093120169
:100580007BC080911C01882309F076C081E090E057
:1005900090931301809312016FC080911C018823F6
:1005A00039F481E090E0909313018093120166C0CA
:1005B00080911C01823039F483E090E09093130124
:1005C000809312015BC080911C01843009F056C0F9
:1005D00084E090E090931301809312014FC08091CA
:1005E0001C01823039F482E090E0909313018093F3
:1005F000120146C080911C01843039F485E090E0FE
:1006000090931301809312013BC080911C018823B9
:10061000B9F581E090E0909313018093120130C00E
:1006200080911C01882339F481E090E090931301BC
:100630008093120127C080911C01823039F482E03E
:1006400090E090931301809312011CC080911C01D3
:100650008430C1F485E090E09093130180931201FF
:1006600011C0809112019091130190931301809316
:10067000120109C0000007C0000005C0000003C04F
:10068000000001C00000809112019091130182309E
:10069000910519F0049759F017C080911D01893018
:1006A00080F480911D018F5F80931D010AC08091AD
:1006B0001D01882341F080911D01815080931D010F
:1006C00002C0000001C000000000DF91CF9108953A
:1006D000CF93DF93CDB7DEB781E290E0FC011082CB
:1006E00082E290E02FEFFC01208384E290E02FEF84
:1006F000FC01208385E290E0FC0110820E94300121
:1007000060E070E0CB010E94900084EA90EDA2E8E6
:10071000B3E48093160190931701A0931801B0934E
:100720001901109215011092140110921B0180E220
:1007300090E0FC01808180958F7080931A0180E2A7
:1007400090E0FC0180818095867080931C010E945E
:1007500057010E946302EBCF0E94590408F481E024
:1007600008950E94C5030C9494040E948D0458F0CF
:100770000E94860440F029F45F3F29F00C947D0428
:1007800051110C94C8040C9483040E94A50468F3CE
:100790009923B1F3552391F3951B550BBB27AA273A
:1007A00062177307840738F09F5F5F4F220F331F74
:1007B000441FAA1FA9F335D00E2E3AF0E0E832D03C
:1007C00091505040E695001CCAF72BD0FE2F29D03F
:1007D000660F771F881FBB1F261737074807AB0711
:1007E000B0E809F0BB0B802DBF01FF2793585F4F86
:1007F0003AF09E3F510578F00C947D040C94C804A7
:100800005F3FE4F3983ED4F3869577956795B79567
:10081000F7959F5FC9F7880F911D9695879597F972
:100820000895E1E0660F771F881FBB1F62177307EB
:100830008407BA0720F0621B730B840BBA0BEE1F00
:1008400088F7E09508950E942A046894B1110C94E9
:10085000C80408950E94AD0488F09F5798F0B92FFE
:100860009927B751B0F0E1F0660F771F881F991FE5
:100870001AF0BA95C9F714C0B13091F00E94C704BC
:10088000B1E008950C94C704672F782F8827B85FCC
:1008900039F0B93FCCF3869577956795B395D9F73D
:1008A0003EF490958095709561957F4F8F4F9F4F47
:1008B0000895990F0008550FAA0BE0E8FEEF1616F1
:1008C0001706E807F907C0F012161306E407F50744
:1008D00098F0621B730B840B950B39F40A2661F0B8
:1008E000232B242B252B21F408950A2609F4A1405B
:1008F000A6958FEF811D811D089597F99F6780E868
:1009000070E060E008959FEF80EC089500240A9461
:100910001616170618060906089500240A941216DA
:100920001306140605060895092E0394000C11F40D
:10093000882352F0BB0F40F4BF2B11F460FF04C0BA
:100940006F5F7F4F8F4F9F4F089557FD9058440F13
:10095000551F59F05F3F71F04795880F97FB991F1E
:1009600061F09F3F79F087950895121613061406DB
:10097000551FF2CF4695F1DF08C016161706180668
:10098000991FF1CF86957105610508940895E89443
:10099000BB2766277727CB0197F908950E94590452
:1009A00008F48FEF08950E94E6040C9494040E94CA
:1009B000860438F00E948D0420F0952311F00C94E9
:1009C0007D040C94830411240C94C8040E94A50493
:1009D00070F3959FC1F3950F50E0551F629FF00192
:1009E000729FBB27F00DB11D639FAA27F00DB11DAB
:1009F000AA1F649F6627B00DA11D661F829F222734
:100A0000B00DA11D621F739FB00DA11D621F839FBA
:100A1000A00D611D221F749F3327A00D611D231F90
:100A2000849F600D211D822F762F6A2F11249F57DE
:100A300050409AF0F1F088234AF0EE0FFF1FBB1FE1
:100A4000661F771F881F91505040A9F79E3F5105A0
:100A500080F00C947D040C94C8045F3FE4F3983E4E
:100A6000D4F3869577956795B795F795E7959F5F4A
:100A7000C1F7FE2B880F911D9695879597F90895DC
:040A8000F894FFCF18
:0E0A84000000000200000000670000000000FB
:00000001FF
