:100000000C9446000C9465000C9465000C946500FB
:100010000C9465000C9465000C9465000C946500CC
:100020000C9465000C9465000C9465000C946500BC
:100030000C9465000C94A5010C9465000C9465006B
:100040000C9465000C9465000C9465000C9465009C
:100050000C9465000C9465000C9465000C9465008C
:100060000C9465000C9465000C9465000C9465007C
:100070000C9465000C9465000C9465000C9465006C
:100080000C9465000C9465000C94650011241FBE4F
:10009000CFEFD0E4DEBFCDBF11E0A0E0B1E0EAE2F7
:1000A000FAE000E00BBF02C007900D92A231B10749
:1000B000D9F721E0A2E1B1E001C01D92A232B2075E
:1000C000E1F70E9442030C9413050C940000CF93B7
:1000D000DF9300D01F92CDB7DEB789837B836A831D
:1000E00089818A3031F48A819B81BC018DE00E9434
:1000F000670080EC90E0FC018081882F90E08072A6
:100100009927892BB1F386EC90E02981FC012083AB
:1001100080E090E00F900F900F90DF91CF910895C5
:100120000F931F93CF93DF9300D000D0CDB7DEB7EE
:1001300069837A838B839C838091190190911A0142
:10014000A0911B01B0911C019C01AD0169817A81D4
:100150008B819C810E947F03882309F477C020E073
:1001600030E0A90169817A818B819C810E947F03A3
:10017000882351F481E990E021E930E0F901208100
:100180002870FC01208309C081E990E021E930E07A
:10019000F90120812360FC01208328E539E344E74D
:1001A0005FE369817A818B819C810E947F03882330
:1001B00044F488E990E02FEF3FEFFC013183208386
:1001C00034C020E034E244EF56E469817A818B81C7
:1001D0009C810E94A104181634F488E990E0FC0187
:1001E0001182108222C008E910E020E030E040E0F7
:1001F00053E469817A818B819C810E94A604DC0191
:10020000CB019C01AD0160E074E284EF9AE40E94AE
:100210008403DC01CB01BC01CD010E94F603DC01AB
:10022000CB010197F8019183808384E990E0FC0180
:100230001182108289819A81AB81BC8180931901DE
:1002400090931A01A0931B01B0931C0100000F9022
:100250000F900F900F90DF91CF911F910F91089504
:10026000CF93DF93CDB7DEB780E990E020E4FC01C7
:10027000208381E990E02BE0FC01208360E070E0C6
:10028000CB010E9490000000DF91CF910895CF93A1
:10029000DF93CDB7DEB780E990E0FC01108281E901
:1002A00090E0FC0110820000DF91CF910895CF9380
:1002B000DF93CDB7DEB781E890E02BE0FC0120832F
:1002C00088E890E02DE730E0FC01318320838FE661
:1002D00090E022E0FC01208384E890E0FC011182A0
:1002E000108280910E0190910F01A0911001B091A8
:1002F00011018093150190931601A0931701B093FB
:1003000018018FE590E02FE530E0F90120812068A9
:10031000FC0120830000DF91CF910895CF93DF93FC
:10032000CDB7DEB781E890E0FC0110820000DF91DC
:10033000CF910895CF93DF93CDB7DEB781E080935F
:1003400012010000DF91CF9108951F920F9200904B
:100350005F000F92112400905B000F922F933F9348
:100360004F935F936F937F938F939F93AF93BF93BD
:10037000EF93FF93CF93DF93CDB7DEB78091150155
:1003800090911601A0911701B09118010197A10950
:10039000B1098093150190931601A0931701B093B2
:1003A00018018091150190911601A0911701B0914B
:1003B0001801892B8A2B8B2B91F40E949A01809132
:1003C0000E0190910F01A0911001B0911101809345
:1003D000150190931601A0931701B0931801000026
:1003E000DF91CF91FF91EF91BF91AF919F918F914D
:1003F0007F916F915F914F913F912F910F9000925C
:100400005B000F9000925F000F901F901895CF93A4
:10041000DF9300D000D0CDB7DEB769837A838B83BA
:100420009C8389819A81AB81BC8180930E019093DA
:100430000F01A0931001B093110180910E019091D2
:100440000F01A0911001B0911101809315019093BB
:100450001601A0931701B093180100000F900F90A0
:100460000F900F90DF91CF910895CF93DF93CDB789
:10047000DEB780911E0190911F0181309105D1F06E
:100480008130910518F0029751F140C0809113011D
:10049000813039F481E090E090931F0180931E0138
:1004A00032C080911301882371F510921F011092C0
:1004B0001E0129C080911301813039F481E090E060
:1004C00090931F0180931E010AC08091130188231D
:1004D00031F482E090E090931F0180931E0180919F
:1004E0001401853038F482E090E090931F018093EE
:1004F0001E010BC080911401853038F010921F014D
:1005000010921E0102C0000001C0000080911E0177
:1005100090911F01009719F0029759F013C01092A3
:10052000140110921D0160E070E0CB010E94900068
:1005300009C081E080931D01809114018F5F809339
:10054000140100000000DF91CF910895CF93DF9355
:10055000CDB7DEB7809120019091210182309105C5
:1005600061F18330910528F4009761F00197F1F073
:100570003EC08430910579F18430910528F10597CA
:1005800089F135C080911D01882339F081E090E028
:1005900090932101809320012FC080911D01882319
:1005A00059F1109221011092200126C082E090E0C2
:1005B000909321018093200120C083E090E09093EC
:1005C00021018093200119C084E090E090932101E3
:1005D0008093200112C085E090E0909321018093E8
:1005E00020010BC0109221011092200106C0109230
:1005F00021011092200101C0000080912001909102
:10060000210182309105F1F08330910528F40097A3
:1006100061F0019781F032C08430910509F1843096
:100620009105B8F0059719F129C060E070E0CB01A1
:100630000E94900023C064EA70ED82E893E40E9477
:1006400090001CC06BE774ED82E993E40E94900077
:1006500015C064EA70ED82E893E40E9490000EC039
:100660006DEC7CEC84EA93E40E94900007C06DEC92
:100670007CEC84EA93E40E94900000000000DF918B
:10068000CF910895CF93DF93CDB7DEB781E290E0AD
:10069000FC01108282E290E02FEFFC01208384E2D3
:1006A00090E02FEFFC01208385E290E0FC011082B6
:1006B0000E94300160E070E0CB010E949000109237
:1006C00021011092200168EE73E080E090E00E942A
:1006D00007020E94570180E290E0FC018081809532
:1006E0008F70809313010E9435020E94A6020000C1
:1006F000809112018823E1F310921201ECCF0E9445
:100700002C0408F481E008950E9498030C94670477
:100710000E94600458F00E94590440F029F45F3FA1
:1007200029F00C94500451110C949B040C94560421
:100730000E94780468F39923B1F3552391F3951B34
:10074000550BBB27AA2762177307840738F09F5FF2
:100750005F4F220F331F441FAA1FA9F335D00E2E5F
:100760003AF0E0E832D091505040E695001CCAF7CC
:100770002BD0FE2F29D0660F771F881FBB1F26178F
:1007800037074807AB07B0E809F0BB0B802DBF0166
:10079000FF2793585F4F3AF09E3F510578F00C9435
:1007A00050040C949B045F3FE4F3983ED4F3869589
:1007B00077956795B795F7959F5FC9F7880F911D56
:1007C0009695879597F90895E1E0660F771F881F42
:1007D000BB1F621773078407BA0720F0621B730BF5
:1007E000840BBA0BEE1F88F7E09508950E94FD0375
:1007F0006894B1110C949B0408950E94800488F0C1
:100800009F5798F0B92F9927B751B0F0E1F0660FD4
:10081000771F881F991F1AF0BA95C9F714C0B13015
:1008200091F00E949A04B1E008950C949A04672F05
:10083000782F8827B85F39F0B93FCCF38695779544
:100840006795B395D9F73EF490958095709561952D
:100850007F4F8F4F9F4F0895990F0008550FAA0B98
:10086000E0E8FEEF16161706E807F907C0F01216C3
:100870001306E407F50798F0621B730B840B950BC6
:1008800039F40A2661F0232B242B252B21F408951B
:100890000A2609F4A140A6958FEF811D811D0895B8
:1008A00097F99F6780E870E060E008959FEF80EC23
:1008B000089500240A9416161706180609060895C6
:1008C00000240A9412161306140605060895092E2C
:1008D0000394000C11F4882352F0BB0F40F4BF2B9B
:1008E00011F460FF04C06F5F7F4F8F4F9F4F0895DB
:1008F00057FD9058440F551F59F05F3F71F04795D1
:10090000880F97FB991F61F09F3F79F087950895B5
:10091000121613061406551FF2CF4695F1DF08C0D4
:10092000161617061806991FF1CF869571056105F1
:1009300008940895E894BB2766277727CB0197F999
:1009400008950E942C0408F48FEF08950E94B904C2
:100950000C9467040E94590438F00E94600420F04F
:10096000952311F00C9450040C94560411240C940B
:100970009B040E94780470F3959FC1F3950F50E09B
:10098000551F629FF001729FBB27F00DB11D639F41
:10099000AA27F00DB11DAA1F649F6627B00DA11DE7
:1009A000661F829F2227B00DA11D621F739FB00D8D
:1009B000A11D621F839FA00D611D221F749F3327FD
:1009C000A00D611D231F849F600D211D822F762F96
:1009D0006A2F11249F5750409AF0F1F088234AF073
:1009E000EE0FFF1FBB1F661F771F881F91505040DF
:1009F000A9F79E3F510580F00C9450040C949B0481
:100A00005F3FE4F3983ED4F3869577956795B79565
:100A1000F795E7959F5FC1F7FE2B880F911D96957F
:0A0A2000879597F90895F894FFCF29
:100A2A000000000200000000670000000000010052
:020A3A000000BA
:00000001FF
